:020000040800F2
:10000000901B0120AD010008CB3E00081130000814
:10001000C93E0008590B00084D48000800000000C8
:1000200000000000000000000000000099420008ED
:10003000110C000800000000CD3E00089B420008A3
:10004000C7010008C7010008C7010008C701000870
:10005000C7010008C7010008690C0008C7010008B3
:10006000C7010008C7010008C7010008C701000850
:10007000C7010008C7010008C7010008C701000840
:10008000C7010008C7010008C70100080000000000
:10009000000000000000000000000000C701000890
:1000A000C701000865430008C7010008C701000830
:1000B000C7010008C7010008C7010008C701000800
:1000C000C7010008C7010008C7010008C7010008F0
:1000D000C70100083548000841480008000000003A
:1000E0006F0C0008F93E0008C7010008000000007E
:1000F000000000000000000000000000C701000830
:1001000000000000C7010008C7010008C70100087F
:1001100000000000000000000000000000000000DF
:10012000C7010008C70100085D0B0008C7010008EF
:10013000C7010008000000000000000000000000EF
:10014000000000000000000000000000C7010008DF
:10015000C7010008C7010008C7010008C70100085F
:10016000C7010008C70100080000000000000000EF
:10017000000000000000000000000000000000007F
:1001800000000000C701000800000000000000009F
:10019000C7010008C7010008DFF80CD000F0E6FB3B
:1001A0000048004769EE0008901B01200648804780
:1001B00006480047FEE7FEE7FEE7FEE7FEE7FEE74C
:1001C000FEE7FEE7FEE7FEE7494300089901000865
:1001D0002DE9F05F0546002092469B46884606467C
:1001E000814640241BE0284641464746224600F00F
:1001F00006FB53465A46C01A914110D31146184681
:10020000224600F0EDFA2D1A67EB01084F46224610
:100210000120002100F0E4FA17EB00094E41201EF6
:10022000A4F10104DFDC484631462A464346BDE8D6
:10023000F09F2DE9F0410024061B254671F10006D0
:1002400005DA01240027D0EB070067EB0101161E39
:1002500073F1000605DA0027D2EB0702012567EBF0
:100260000303FFF7B5FF86460E4617469C46AC4291
:1002700004D00025D0EB050E65EB010624B100206B
:10028000D2EB000760EB030C704631463A466346FA
:10029000BDE8F081004870478C1E020840EA010367
:1002A0009B0703D009E008C9121F08C0042AFAD22C
:1002B00003E011F8013B00F8013B521EF9D27047F0
:1002C000D2B201E000F8012B491EFBD27047002298
:1002D000F6E710B513460A4604461946FFF7F0FF45
:1002E000204610BD421C10F8011B0029FBD1801ACA
:1002F000704710B5002200E0521C835C8C5CA34266
:1003000001D1002BF8D1D8B2E1B2401A10BD30B5FE
:1003100004460020034600E05B1C934203D2E05CED
:10032000CD5C401BF8D030BD034611F8012B00F81E
:10033000012B002AF9D1184670472DE9FE4F80465F
:1003400081EA0300C00F0C46009021F0004123F029
:100350000045B8EB0200A94105D24046214690462F
:100360001C460B46024623F00040104347D0270DA1
:10037000C7F30A00C3F30A510290401A01904028C3
:100380006BDAC3F3130040F4801B0098924620B14F
:100390000023D2EB030A63EB0B0B01985946C0F123
:1003A0004002504600F01CFA06460D46504659469B
:1003B000019A00F034FA10EB08006141002487EA4A
:1003C000115284EAE7731A4340D0009A62B3019A4B
:1003D000012A4FEA075215DC001B61EB02014FF0C6
:1003E000004202EA0752CDE90042001C41F58011AB
:1003F00032462B4600F06BFA03B0BDE8F08F404662
:100400002146F9E7001B61EB0201001C41F5801356
:1004100000185B412018A2F5001747EB030140EAE2
:10042000D570B6196D4111E06D084FEA360645EA00
:10043000C0754FEA0752001B61EB0201001C41F539
:10044000801149084FEA30000019514132462B46CD
:1004500003B0BDE8F04F00F02BBA00980122400035
:100460000023D0EB020263EBE073009821464FEAD1
:10047000E074B8EB000061EB0401E9E783F00043AE
:100480005BE781F0004158E72DE9FE4F81EA030464
:1004900004F0004421F0004100944FF0000B23F0E1
:1004A000004350EA01045ED052EA03045BD0C3F378
:1004B0000A54C1F30A552C44A4F2F3340194A0FB6E
:1004C0000254C1F3130141F48011C3F3130343F445
:1004D000801301FB024400FB034E840A970A44EA9E
:1004E000815447EA8357A4FB076802958D0A05FBF0
:1004F00007854FEA932C04FB0C542705029D4FEA15
:10050000065847EA1637B5EB08056EEB070C870E61
:10051000920E47EA811742EA8312A7FB0201B6EB6B
:100520000B0164EB00042B0D43EA0C335E1844EB23
:100530001C50DA465146E7FB0201C5F313044FEAAB
:100540000B3343EA14534FEA0432019C43EA060397
:10055000A4F10C040294009CCDE900B400F0B7F9BA
:1005600003B0BDE8F08F00200146F9E72DE9F04D1A
:1005700081EA030404F0004B21F0004514464FF0DB
:10058000000A23F0004150EA050220D054EA01029B
:100590001DD0C5F30A570246C5F31303C1F3130078
:1005A000C1F30A5640F4801543F48013A7EB060804
:1005B000101BD64608F2FD3873EB050002D308F194
:1005C000010801E092185B41B8F1000F03DA002046
:1005D0000146BDE8F08D00204FF4801106468446A8
:1005E0000EE0171B73EB050705D3121B63EB050326
:1005F00006434CEA010C49084FEA300092185B416F
:1006000050EA0107EDD152EA030012D082EA040059
:1006100083EA0501084305D0101BAB4106D2012235
:10062000002306E000224FF0004302E06FF00102D9
:1006300053101AEB06004CEB085110EB0A0041EB8B
:100640000B01BDE8F04D00F033B90EB5C10F80EAE3
:10065000E0700844CA07002140F233438DE80E00E1
:100660000A460B4600F033F903B000BD0EB540F268
:10067000334102910021CDE900110A460B4600F0FA
:1006800026F903B000BD70B5C1F30A5201F0004570
:100690000024C1F3130140F2FF3341F480119A4268
:1006A00001DA002070BD40F233439A42A2F2334295
:1006B00003DC524200F0A3F800E090402C43F1D05C
:1006C000404270BDC1F30A5210B5C1F3130140F2AC
:1006D000FF3341F480119A4201DA002010BD40F24C
:1006E00033439A42A2F2334203DC524200F087F8CD
:1006F00010BD904010BD00F0004230F000400AD024
:10070000C10D01F56071C0F3160042EA0151C20843
:1007100040071143704700200146704730B5041E62
:1007200071F1000404DB4FF00044404264EB01012E
:10073000141E73F1000405DB1C464FF000435242C7
:1007400063EB04038B4208BF824230BD30B5041E08
:1007500071F1000404DB4FF00044404264EB0101FE
:10076000141E73F1000405DB1C464FF00043524297
:1007700063EB0403994208BF904230BD01F000438F
:1007800030B421F0004150EA010206D00A0DA2F572
:100790006072C1F31301002A02DC30BC00207047F4
:1007A000440F44EAC104C100E01830BC00EBC25061
:1007B00000F047B830B50B46014600202022012446
:1007C00009E021FA02F59D4205D303FA02F5491B1F
:1007D00004FA02F52844151EA2F10102F1DC30BD35
:1007E000202A04DB203A00FA02F1002070479140F1
:1007F000C2F1200320FA03F3194390407047202AE6
:1008000004DB203A21FA02F00021704721FA02F3BA
:10081000D040C2F120029140084319467047202A77
:1008200006DBCB17203A41FA02F043EAE07306E018
:1008300041FA02F3D040C2F1200291400843194628
:1008400070470029A8BF7047401C490008BF20F02E
:100850000100704710B4B0FA80FC00FA0CF050EAC6
:10086000010404BF10BC704749B1CCF1200421FA47
:1008700004F411FA0CF118BF012121430843A3EB42
:100880000C01CB1D4FEA00614FEA102042BF00204F
:1008900010BC704700EBC35010440029A4BF10BC2B
:1008A0007047401C490008BF20F0010010BC704791
:1008B00010B5141E73F1000408DA401C41F1000168
:1008C00092185B411A4301D120F0010010BD2DE9BF
:1008D000F04D92469B4611B1B1FA81F202E0B0FAB6
:1008E00080F220329046FFF77BFF04460F4640EA35
:1008F0000A0041EA0B0153465A46084313D01146F9
:1009000053EA010019D0C8F140025046FFF777FFC3
:1009100005460E46504659464246FFF761FF0843DA
:1009200005D0012004E020463946BDE8F08D0020C6
:10093000054346EAE0762C4337430A986305E40A08
:10094000A0EB08000022FD0A44EA47540A3002D511
:1009500000200146E9E7010510196941DDE9084574
:1009600000196941BDE8F04DA2E70000064C074DB3
:1009700006E0E06840F0010394E80700984710346F
:10098000AC42F6D3FFF70CFCC01E0208E01E0208C2
:1009900070B58C1810F8015B15F0070301D110F841
:1009A000013B2A1106D110F8012B03E010F8016B6E
:1009B00001F8016B5B1EF9D12B0705D40023521EF1
:1009C0000DD401F8013BFAE710F8013BCB1A921C59
:1009D00003E013F8015B01F8015B521EF9D5A14257
:1009E000D8D3002070BD0000464910B54A6822F4F3
:1009F00040324A604A6843681A434A6001684A685C
:100A000022F480724A6001684A68036942EA03225C
:100A10004A6001684A6822F040724A6001684A6888
:100A200083681A434A6001688A6822F400628A6017
:100A300001688A68C3681A438A60816A6FF07062CD
:100A4000D14201688A6822F070628A6001688A680F
:100A50000CD0836A1A438A6001688A6822F0405287
:100A60008A6001688A68C36A1A4301E022F0405232
:100A70008A6001688A6822F002028A6001688A68D6
:100A8000037E42EA43028A6090F820100029016840
:100A90004A680FD042F400624A6001684A6822F452
:100AA00060424A6001684A68174C436A04EB43336A
:100AB0001A4301E022F400624A600168CA6A22F423
:100AC0007002CA620168CA6A838B104C04EB03533C
:100AD0001A43CA6201688A6822F400728A60016857
:100AE0008A6890F8303042EA43228A6001688A6856
:100AF00022F480628A6001688A68406942EA802044
:100B0000886010BD0023014000E0FFFF0000F0FFFF
:100B100001490120087070473C0000200B4910B5C6
:100B20000B4A4B780120012B107006D0487000F062
:100B300071F8BDE8104002F0D1BF0220487000F00B
:100B400055F8BDE8104000F075B800003C000020EA
:100B50000000002070477047FEE7000002490120B6
:100B60000870024800F05CBA40000020908200202B
:100B700001681823CAB2103AB2FBF3F2054B6FF3C7
:100B80000901032A9B5CC36500D9091D81650846DC
:100B90007047000083FE000810B5014600208B69F5
:100BA0008A6A4FF0C07453B1B3F5005F15D072B1CB
:100BB000012A0CD0022A0AD0032A09D104E01AB172
:100BC000012A06D0022A03D1C96AC90100D5012031
:100BD00010BDC96AA142FAD010BD002AF7D0012A7F
:100BE000F2D0022AF3D0032AF3D010BD10B5074C7F
:100BF000A06A0DF087FD206A0DF084FD606A0DF09B
:100C000081FD6068BDE810400CF0D4BB6401002099
:100C10007047000010B5064CE0690DF073FD606A86
:100C20000DF070FD6068BDE810400CF0C3BB000023
:100C30006401002010B50DF08BFA00210CF0D2FBFE
:100C4000084C5022A02160600CF090FF60680CF00E
:100C5000E8FE02F0C5FB02F0E3FBBDE8104002F045
:100C60006FBE000064010020012000F027BB4FF49C
:100C7000806000F023BB704778B50024009490F8A2
:100C80003C20012A19D0012280F83C200A68072361
:100C90000568092A13D9EE680A3A02EB420293402A
:100CA0009E43EE600B788A680A3B03EB43039A404D
:100CB0000368DD682A43DA6010E0022078BD2E69FF
:100CC00002EB420293409E432E610B788A6803EB4D
:100CD00043039A4003681D692A431A614A681F2327
:100CE000072A13D205686E6B521E02EB82029340F4
:100CF0009E436E630A8893B20A79521E02EB820207
:100D000093400268556B2B43536327E005680D2A17
:100D100012D22E6BD21F02EB820293409E432E63AF
:100D20000B790A88DB1F92B203EB83039A400368B6
:100D30001D6B2A431A6311E0EE6A0D3A02EB820240
:100D400093409E43EE620B790A880D3B92B203EB0F
:100D500083039A400368DD6A2A43DA621B4B056805
:100D6000194A9D420AD10D68122D07D1556825F404
:100D700000055560556845F48005556005689D423D
:100D80001DD1134D0B68AB4201D0112B17D1536805
:100D900023F480035360536843F4000353600968ED
:100DA000A9420CD10B490C4A0968B1FBF2F101EBE5
:100DB0008101490000E0491E00910029FBD180F823
:100DC0003C40002078BD000000230140002001408D
:100DD000120000107400002040420F00006C7047A9
:100DE0000068C06C704770B504004FF0000503D078
:100DF000206C002610B107E0012070BD204600F0F5
:100E00001DF8666484F83C60206CC00610D4206C29
:100E100020F4885040F0020020642046FFF7E4FDF3
:100E20006664206C20F0020040F00100206400E0C5
:100E3000012584F83C60284670BD000010B586B0DE
:100E4000044614216846FFF742FA11492068884297
:100E50001CD110480021026842F4807202600068D0
:100E600000F4807005900B481438026842F00102CB
:100E70000260006800F0010005900220009003204D
:100E8000CDE901016946044800F024FA06B010BD1E
:100E90000020014044380240000002402DE9F041AA
:100EA000044600680D4681684FF0000749050BD5E0
:100EB0008068C00508D5206C40F02000206484F8CC
:100EC0003C700120BDE8F08100F0E0FA06460FE03A
:100ED000681C0DD025B100F0D9FA801BA84207D9B3
:100EE000206C40F00400206484F83C700320E9E7A3
:100EF000206800688007EBD521686FF01200086059
:100F0000206C40F4007020642068816811F0405F1C
:100F100013D1217E89B9C16A11F4700F02D08068A3
:100F200040050AD4206C20F480702064206CC0043A
:100F300003D4206C40F0010020640020C2E70000D0
:100F400018B50021009190F83C20012A07D0012219
:100F500080F83C2002689368DB0702D011E0022091
:100F600018BD936843F001039360204A204B126838
:100F7000B2FBF3F202EB420200E0521E0092002AA2
:100F8000FBD102689368DB072DD0036C40F201644B
:100F9000A34343F48073036453685B0505D5036C76
:100FA00023F4005343F480530364036CDB0404D53F
:100FB000436C23F00603436400E0416480F83C1076
:100FC0000C496FF02203136049680068C90602D01B
:100FD0000949884207D1816811F0405F03D18168D7
:100FE00041F080418160002018BD000074000020A5
:100FF00040420F00002301400020014090F83510CE
:10100000022903D08021416501207047052180F825
:1010100035100068016821F001010160002070476F
:101020002DE9F84304464FF00009CDF800906348DD
:101030004FF41651A56D0068B0FBF1F72E6894F8D7
:101040005C10082000FA01F131420FD021680A68D3
:1010500052070BD50A6822F004020A6094F85C106B
:101060008840A860606D40F00100606594F85C10F5
:101070004FF0010808FA01F0304208D021684969B0
:10108000090604D5A860606D40F00200606594F820
:101090005C1004208840304208D021680968890724
:1010A00004D5A860606D40F00400606594F85C10A1
:1010B00010208840304218D021680968090714D5EB
:1010C000A86020680168490304D50068000308D5BA
:1010D000A16C07E00168C90503D4016821F008018B
:1010E0000160216C09B12046884794F85C102020EB
:1010F0008840304231D021680968C9062DD5A860E2
:1011000094F8350005282068016806D0490347D5C2
:10111000006800031DD4616C1CE021F01601016021
:101120002068416921F080014161206C08B9A06C00
:1011300020B12068016821F00801016094F85C107A
:101140003F208840A86084F8349084F83580216D71
:101150001FE0E16B09B120468847606D00282BD065
:10116000606DC00714D0052084F835002068016840
:1011700021F0010101600098401C0090B84203D8A2
:1011800020680068C007F6D184F8349084F8358070
:10119000E16C002910D001B02046BDE8F0430847BB
:1011A0000168C905D5D4016821F01001016084F8F7
:1011B000349084F83580CCE7BDE8F88374000020D3
:1011C0002DE9F041044600F061F906465CB10025C6
:1011D00084F83450022084F835002068016821F03A
:1011E000010101600DE00120BDE8F08100F04EF941
:1011F000801B052805D920206065032084F8350070
:10120000F2E720680068C007F0D122681168204822
:101210000140D4E901031843D4E9033633431843AA
:1012200063691843A3691843E3691843236A1843A1
:101230000843616A042903D1D4E90B131943084315
:10124000106020684069666A20F0070130460E434E
:10125000012704280CD1A06A0643E06A40B1204669
:10126000FFF79AFC20B14020606584F83570BAE73A
:10127000206846612046FFF77BFC94F85C203F2104
:1012800091408160656584F835700020ACE700000E
:101290003F8010F070B5044600F0F8F80546601C79
:1012A00002D004480078044400F0F0F8401BA0424B
:1012B000FAD370BD6800002070470000044910B5E3
:1012C0000A68024202D00860FFF7F6FF10BD000076
:1012D000143C01402DE9F84F00224FF0010803258E
:1012E0004FF00F0E0B6808FA02F42340A34271D1AD
:1012F0004E68012E05D0022E03D0112E01D0122EE1
:1013000015D18668570005FA07FC26EA0C06D1F8C5
:101310000CC00CFA07FC4CEA060CC0F808C0466882
:10132000A6430C79C4F30014944034434460C66867
:10133000570005FA07FC8C6826EA0C06BC403443CB
:10134000C4604C68022C01D0122C13D1D40800EBDD
:101350008404A346D4F8209054074FEAD46A0EFAC6
:101360000AF629EA06090E6906FA0AF646EA0906A5
:10137000CBF8206004680E7924EA0C0406F003061A
:10138000BE40264306604C68E40056D52E4C2668C5
:1013900046F480462660246822F0030604F4804464
:1013A00000942A4C3444A446D4F808489607370FD2
:1013B0000EFA07F6B443264EB04201D1002615E0DE
:1013C000244EB04201D1012610E0234EB04202D19A
:1013D00002260BE031E0214EB04201D1032605E0A8
:1013E0001F4EB04201D1042600E00726BE4026432E
:1013F000CCF808681B4E34684F689C43FF0300D547
:101400001C433460174E361D34684F689C43BF033D
:1014100000D51C433460134E083634684F689C4333
:10142000FF0200D51C4334600E4E0C3634684F6802
:101430009C43BF0200D51C433460521C102AFFF4A9
:1014400051AFBDE8F88F0000443802400030014041
:10145000000002400004024000080240000C02406C
:1014600000100240003C01400069084000D001200B
:101470007047426931EA020200D109048161704774
:101480000AB1816170470904FBE7000001488068E8
:10149000704700006800002070B5040025D094F863
:1014A0003D00002520B984F83C50204600F04CFA5D
:1014B000242084F83D002068016821F001010160CA
:1014C0002068016841F4004101602068016821F44E
:1014D0000041016000F076FC4D4A6168914201D8FC
:1014E0004C4900E04C49884201D2012070BD4B4973
:1014F0002368B0FBF1F15E6826F03F060E435E60A4
:101500006368934206D94FF4967359434FF47A7344
:10151000B1FBF3F12368491C1E6A26F03F063143F4
:1015200019626168914210D84900401EB0FBF1F287
:10153000521CC2F30B02042A01D2042022E0B0FBA9
:10154000F1F0401CC0F30B001CE0A268F2B301EB09
:10155000C10303EB0116431EB3FBF6F35B1C43F41C
:1015600080431B0549D092B301EBC10202EB01118C
:10157000401EB0FBF1F0401CC0F30B0040F4804073
:1015800040F400402168CA694CF6FF739A43104347
:10159000C861D4E9071001432068026822F0C00244
:1015A00011430160D4E9030101432068826848F2D5
:1015B000FF339A4311438160D4E905010843216850
:1015C000CA6822F0FF021043C86001E00EE016E096
:1015D0002068016841F0010101602564202084F841
:1015E0003D00256384F83E50002070BD01EB4106AC
:1015F000431EB3FBF6F35B1CB3E70120C2E701EB2C
:101600004101401EB0FBF1F0401CC0F30B00B7E7F6
:10161000A086010080841E0000093D0040420F00AA
:101620002DE9FF4F83B09A46DDE9119793460446B2
:10163000DDF84080FFF72AFF054694F83D0020289A
:1016400070D11923012271492046009501F0F0FD67
:101650000028F5D194F83C00012863D0012084F8DB
:101660003C0020680168C90703D1016841F001010D
:1016700001602068016821F400610160222084F883
:101680003D00402084F83E0000262664C4F82480F3
:10169000A4F82A90608D20855D48E062CDE9007550
:1016A00053465A462046049901F0CAFC00287CD1D2
:1016B000208DD0B1012821D00228206824D0416992
:1016C00080690090208D032869D801282BD05149CA
:1016D00002283B464FF00002009559D0884620462C
:1016E00001F0A6FD002860D13CE0206841698169D5
:1016F0000091016841F40071016077E020680168A1
:1017000021F480610160F0E7016821F480610160EB
:101710002068016841F400610160206841698069C6
:10172000009063E06FE02A463946204601F0FFFD55
:1017300098BB20680069616A08704EE02068016803
:1017400041F40071016020680069616A0870606A94
:10175000401C6062218D491E2185618D491E618575
:10176000216838E02068016821F480610160206808
:101770000069616A0870606A401C6062208D401ECA
:101780002085608D401E60853B46002241460095C5
:10179000204601F04DFD00B9D0E706E0FFE72A46FC
:1017A0003946204601F0C3FD18B1012007B0BDE85D
:1017B000F08F20680069616A0870606A401C60628E
:1017C000218D491E2185618D491E618521684A69E7
:1017D000D24352070AD409690170606A401C6062F2
:1017E000208D401E2085608D401E6085208D002844
:1017F0007FF468AF202084F83D0084F83E6084F8D0
:101800003C600020D2E70220D0E700000200100078
:101810000000FFFF040001002DE9FF4F83B09A464E
:10182000DDE9119793460446DDF84080FFF72EFE70
:10183000054694F83D0020287FD119230122404914
:101840002046009501F0F4FC002876D194F83C0085
:10185000012872D0012084F83C0020680168C90783
:1018600003D1016841F0010101602068016821F4A1
:1018700000610160212084F83D00402084F83E0092
:1018800000262664C4F82480A4F82A90608D208560
:101890002C48E062CDE9007553465A46204604992B
:1018A00001F04CFC70B930E02A463946204601F080
:1018B00071FD58B1206C042804D12068016841F4FE
:1018C00000710160012007B0BDE8F08F606A2168F7
:1018D00000780861606A401C6062218D491E89B2EF
:1018E0002185628D521E628522685369DB435B0746
:1018F0000BD469B100781061606A401C6062208D71
:10190000401E2085608D401E6085208D0028CBD133
:101910002A463946204601F065FC0028CAD154F811
:101920003D0B016841F400710160202004F81E099C
:10193000E67766770020C6E7FFE70220C3E70000EE
:10194000020010000000FFFF10B586B0044614210D
:101950006846FEF7BCFC13492068884220D1124833
:10196000016841F0020101600068694600F0020070
:101970000590C020009012200190012002900320C9
:101980000390042004900948FFF7A4FC0648103097
:10199000016841F400110160006800F40010059036
:1019A00006B010BD00540040303802400004024030
:1019B0000248816802781144816070476800002005
:1019C0000B4810B5016841F400710160016841F4F1
:1019D00080610160016841F480710160032000F0C2
:1019E0007FF8002000F006F800F024F8002010BD79
:1019F000003C024070B50D4D04464FF47A712878D2
:101A0000B1FBF0F00A490968B1FBF0F000F0C8FF43
:101A100048B9102C07D200222146501E00F040F891
:101A200000206C6070BD012070BD000068000020C7
:101A3000740000200A4808B5016841F48041016043
:101A4000006800F4804000900548001F016841F0E4
:101A500080510160006800F08050009008BD0000D7
:101A60004438024000280DDB00F01F0201219140A4
:101A70004009800000F1E020C0F88011BFF34F8FD3
:101A8000BFF36F8F7047002809DB00F01F020121B0
:101A900091404009800000F1E020C0F8001170473B
:101AA000F0B40E4B1B680C46C3F30223C3F10705C9
:101AB000042D00D90425191D072901D2002300E0B7
:101AC000DB1E012606FA05F1491E214099409E4081
:101AD000761E16403143F0BC02F0DEBE0CED00E095
:101AE000064900F0070208684FF6FF03184040EA75
:101AF0000220034A10430860704700000CED00E02C
:101B00000000FA050B4A136823F003030343136034
:101B10000948026842F004020260012907D040BF70
:101B200020BF20BF016821F004010160704730BF71
:101B3000F8E700000070004010ED00E02DE9F843E8
:101B4000044600684FF00109C1074FF0000601D1BB
:101B5000400729D5DFF82081C8F86860FFF796FCB8
:101B60000746464D05E000BFFFF790FCC01B02286A
:101B700059D828680001F7D4A068217B800140EA89
:101B80000170616808433D4984310860C8F8689075
:101B9000FFF77CFC074604E0FFF778FCC01B022837
:101BA00041D828680001F7D52078800752D53348FE
:101BB0004030016841F0805101600068304D00F014
:101BC00080500090286840F480702860FFF75EFC29
:101BD000074604E0FFF75AFCC01B022823D82868F8
:101BE000C005F7D5254D7035286810F4407020D019
:101BF000218A01F4407181421BD02868214920F4D8
:101C00004070C1F800900E6028602868C00710D0AE
:101C1000FFF73CFC064641F2883707E0FFF736FC49
:101C2000801BB84202D90320BDE8F88328688007EA
:101C3000F4D521691148C1F301220830032A12D0DA
:101C4000016821F4F81101602868218AC1F30B01B1
:101C5000084328602078000703D50B49207DC1F890
:101C6000E0010020E0E70268084B22F4F812194076
:101C70000A430260E8E700000000474200380240E3
:101C800000700040400E474200104742FFFCFF0F2B
:101C90002DE9F0470E46050065D0DFF81481D8F82D
:101CA0000000F7B200F00F00B04207D288F80070D1
:101CB000D8F8000000F00F00B04254D128683D4C25
:101CC000810712D5400703D5206840F4E05020601A
:101CD0002878000703D5206840F460402060206821
:101CE000A96820F0F000084320602878C0072DD0B4
:101CF000304968680839012812D0022813D0032817
:101D000011D00968890700292DDA216821F0030123
:101D100001432160FFF7BAFB814641F2883A0EE0A9
:101D200009688903EFE709688901ECE7FFF7AEFB73
:101D3000A0EB0901514502D90320BDE8F0872068D6
:101D4000696800F00C00B0EB810FEFD1D8F80010FB
:101D5000404601F00F01B14207D90770006800F05A
:101D60000F00B04201D00120E7E72878400705D5F1
:101D70002068E96820F4E0500843206028780007D4
:101D800006D52068296920F4604040EAC10020603F
:101D900000F038F82168084AC1F30311515CC840CB
:101DA0000649086006480068FFF724FE0020C4E7E3
:101DB000003C0240083802408BFE000874000020FE
:101DC0006C0000200448054900680968044AC1F312
:101DD0008221515CC84070477400002008380240DE
:101DE0009BFE00080448054900680968044AC1F3DD
:101DF0004231515CC84070477400002008380240EE
:101E00009BFE0008154810B5006810F00C0214483D
:101E100013D01449042A0FD0082A0ED10F4C241FC6
:101E20002268236802F03F025B0207D52068C0F3F6
:101E30008810A0FB010106E0084610BD2168C1F32F
:101E40008811A1FB00010023FEF7C2F92168C1F34C
:101E50000141491C4900B0FBF1F010BD08380240B7
:101E60000024F40040787D012DE9F84F04006ED085
:101E70002078DFF83C93C007A9F104054AD009F1A6
:101E800004000168C1F38101012908D00068C0F392
:101E9000810002280AD1D9F80000400206D528683E
:101EA000800337D560680028E1D033E06068B0F582
:101EB000803F10D0B0F5A02F286810D020F48030DB
:101EC0002860286820F4802028606068A8B1FFF7A7
:101ED000DDFA06460DE0286840F48030F4E740F46F
:101EE00080202860F7E700BFFFF7D0FA801B642846
:101EF00073D828688003F7D50CE0FFF7C7FA0646C9
:101F000005E000BFFFF7C2FA801B6428F0D82868FC
:101F10008003F7D42078DFF89C8280074FF0000A16
:101F20003ED5A348001D016811F00C0F08D00068D1
:101F3000C0F3810002280BD1D9F80000400207D479
:101F40002868800716D5E068012800D112E02BE14F
:101F5000E068B8B10120C8F80000FFF797FA06461C
:101F600005E000BFFFF792FA801B0228C0D828685E
:101F70008007F7D52868216920F0F80040EAC10001
:101F800028600DE0C8F800A0FFF780FA064604E0DC
:101F9000FFF77CFA801B02281FD828688007F7D437
:101FA0002078000722D5824E83486169703671B16E
:101FB00001210160FFF76AFA074604E0FFF766FABD
:101FC000C01B022809D830688007F7D50EE0C0F89A
:101FD00000A0FFF75BFA074605E082E0FFF756FA3C
:101FE000C01B02287DD830688007F7D420784007CE
:101FF00068D5DFF8BCB100270BF13C0BDBF8000023
:10200000C0000BD4DBF8001041F08051CBF8001079
:10201000DBF80000012700F080500090674E306828
:10202000C00510D4306840F480703060FFF72EFA9D
:10203000009005E0FFF72AFA0099401A022850D8CC
:102040003068C005F6D55A4EA0686C3601280FD00E
:102050000528306810D020F001003060306820F092
:1020600004003060A068B8B1FFF710FA00900FE0EC
:10207000306840F00100F4E740F004003060F7E71A
:10208000FFF704FA0099411A41F28830814266D87C
:1020900030688007F4D50EE0FFF7F8F9009007E00C
:1020A000FFF7F4F90099411A41F28830814256D87D
:1020B00030688007F4D42FB1DBF8001021F0805194
:1020C000CBF80010A069C8B33949091D0968C1F3EC
:1020D000810102294AD00228504607D0C8F8600082
:1020E00000E03CE0FFF7D2F904463BE04746C8F881
:1020F0006000FFF7CBF9064605E000BFFFF7C6F921
:10210000801B02282BD828688001F7D4D4E9070166
:102110000843A16A2A4A490802EB0141626A41EA7E
:102120008211084394F82C1040EA0161C9F80010AC
:1021300001203866FFF7AAF9044606E036E000BF42
:10214000FFF7A4F9001B022809D828688001F7D5F9
:102150002CE000BFFFF79AF9001B022802D90320E8
:10216000BDE8F88F28688001F4D41FE00128F7D07B
:10217000D9F80000E26900F48001914214D1226A8A
:1021800000F03F0191420FD147F6C071626A0140F1
:10219000914209D1A26A00F44031914204D1E16A2E
:1021A00000F07060884201D00120D9E70020D7E715
:1021B0000438024000004742800E47420070004051
:1021C0000000FFFF70470068503050F82100704752
:1021D0000068503040F821207047704710B5044621
:1021E00000688168C9040CD5C068C00509D52046BF
:1021F000FFF7F3FF2068C16801F0800161F4C0714E
:10220000C1602068816889040CD5C068800509D543
:102210002046FFF7D7FF2068C16801F0800161F414
:102220002071C16003494FF40030086001206077DD
:1022300010BD0000143C014010B500680B46416819
:102240000D480140080CD870C1F304245C7001F003
:102250003F049C70C1F34231197052B901F052FE33
:10226000D870587801F04EFE5870987801F04AFE08
:102270009870002010BD00003FFFFF0010B50B4616
:102280000168896A596001680969C1F30E019960A2
:10229000006801680E480140C1F305401870C1F3A1
:1022A00006245C7001F07F049C70402404EA114114
:1022B000D97052B901F026FE1870587801F022FE4C
:1022C0005870987801F01EFE9870002010BD000034
:1022D0007F7F7F0070B5040002D0607F10B106E000
:1022E000012070BD00202077204600F049F8022030
:1022F00060772168CA2048622168532048622046DE
:1023000001F014FEFF25042618BB206881681B4AD3
:10231000114081602168886862681043D4E9042311
:102320001A43104388602168E068086120680169E9
:10233000228941EA024101612068C16821F08001DF
:10234000C16020688068800607D4204600F0C6F986
:1023500018B1206845626677C2E72068016C21F4F5
:10236000802101642068016CA26911430164206826
:10237000456201206077002070BD0000BFFF8FFF25
:1023800010B50068084988420CD10849012008604E
:10239000002211462920FFF783FBBDE810402920C9
:1023A000FFF771BB10BD0000002800403C0E474203
:1023B000F8B503465A480C464FF4FA410068B0FBA2
:1023C000F1F0491148430090187F012863D001269D
:1023D0001E770220587718680025002A80684FEA87
:1023E00040605AD0002800DBE570A0782278E778BA
:1023F00040EA02406278E169120242EA0742104371
:1024000094F8202040EA026008436169A269084309
:1024100061681F681143CA227A621F6853227A6278
:10242000626AFF27B2F5807F1A684FF0030C946848
:102430004ED024F4007494601A68D46804F08004C8
:1024400064F42074D4601A68009CB4F1010ECDF8D5
:1024500000E05ED3D468A407F6D5106218688164E2
:102460001868816841F4007181601868816841F4DE
:10247000005181602B48016841F400310160294816
:102480000830016841F400310160186847625E77E6
:102490001D770020F8BD0220F8BD002800DBE570A4
:1024A000207801F038FD0204607801F034FD42EA42
:1024B0000022A07801F02FFD0243E07842EA0042BA
:1024C00094F8200001F027FD42EA0060E1699BE7F3
:1024D00024F4807494601A68D46804F0800464F46E
:1024E000C074D4601A68009CB4F1010ECDF800E00D
:1024F0000FD3D468E407F6D0D06118684164186837
:10250000816841F4807181601868816841F480516C
:10251000AFE7576283F81DC01D770320F8BD0000A8
:1025200074000020003C01402DE9F0470446007F84
:102530000B4601281FD04FF0010984F81C9002209F
:102540006077DAB19878D97840EA014558781978F7
:10255000000240EA413005432168CA2048622168F0
:1025600053204862204601F0E1FC0026FF274FF08F
:10257000040860BB1AE00220BDE8F0875878C10665
:1025800003D500F0EF000A305870D87801F0C3FC92
:102590000204587801F0BFFC42EA0022987801F06A
:1025A000BAFC0243187842EA4035D5E70F480540A7
:1025B000206845602068C16821F08001C160206802
:1025C000806880060AD4204600F088F830B1206880
:1025D000476284F81D8026770120CDE72068476296
:1025E00084F81D9026770020C6E700003FFFFF001B
:1025F0002DE9F0470446007F0D46012827D04FF013
:10260000010A84F81CA002206077206800268068F8
:102610004FEA4060F2B1002800DBEE70A87829781C
:1026200040EA01476878E978000240EA0140074340
:102630002168CA204862216853204862204601F080
:1026400075FC4FF0FF084FF00409A0BB16E0022014
:10265000BDE8F087002800DBEE70287801F05BFC15
:102660000204687801F057FC42EA0022A87801F0E1
:1026700052FC0243E87842EA0047D9E7164807408F
:10268000206807602068816821F480218160D5E995
:102690000301084321688A68104388602068C16884
:1026A00021F08001C1602068806880060BD420463C
:1026B00000F014F838B12168C1F8248084F81D9026
:1026C00026770120C4E72168C1F8248084F81DA082
:1026D00026770020BCE700007F7F7F0070B50446AE
:1026E0000068C16821F0A001C160FEF7CFFE054679
:1026F0004FF47A7607E000BFFEF7C8FE401BB042F9
:1027000001D9032070BD2068C0688006F4D5002080
:1027100070BD4FF0E020016941F002010161704796
:1027200070B5040005D00025A56294F8510010B1E1
:1027300006E0012070BD84F85050204600F030F8CB
:10274000022084F851002068016821F040010160F6
:10275000D4E901010843D4E9031211430843616934
:102760000843218B01F400710843E1690843216AA1
:102770000843A16A084321680860A069042101EAAE
:102780001040616A0843216848602068C16921F4EB
:102790000061C1616565012084F85100002070BDB1
:1027A00070B586B0064614216846FDF790FD2049B5
:1027B0003068884239D11F480025016841F48051B2
:1027C0000160006800F4805005901A4814380168D0
:1027D00041F0010101600068694600F001000590C8
:1027E000A02000900220CDE90105032003900520E0
:1027F00004901148FEF76EFD114C104820604FF018
:10280000806060604020C4E902050001C4E904055D
:102810008010C4E90650256220466562FEF7D0FCB0
:1028200008B1FEF728FAB464A66306B070BD0000D4
:102830000030014044380240000002404064024041
:10284000908200202DE9F84F044690F850000027B0
:102850001D461646894601280DD04FF0010B84F81D
:1028600050B0FEF713FE804694F85100BA46012896
:1028700004D002278EE00220BDE8F88FB9F1000FE6
:102880007DD0002E7BD0032084F85100C4F854A0E2
:10289000C4F83090A686E686C4F838A0A4F83CA018
:1028A000A4F83EA0C4F844A0C4F840A0A068B0F5C5
:1028B000004F04D12068016841F480410160206824
:1028C0000168490603D4016841F040010160E068F5
:1028D000B0F5006F606803D030B3012E24D040E023
:1028E00008B1012E1CD1206B21680088C86006E069
:1028F00020688168890709D5216B0988C160206B30
:10290000801C2063E08E401EE08609E0FEF7BEFDDD
:10291000A0EB0800A84202D3681C01D031E07DB3CF
:10292000E08E0028E4D11FE0206B21680078087356
:1029300006E020688168890709D5216B0978017351
:10294000206B401C2063E08E401EE08609E0FEF70D
:102950009DFDA0EB0800A84202D3681C01D010E046
:1029600075B1E08E0028E4D142462946204601F0A8
:10297000FBFA08B120206065A06820B107E008E0FC
:10298000FFE7032706E02068C16880680090606D5B
:1029900000B1012784F851B084F850A038466BE7A5
:1029A00010B5401EB0F1807F01D3012010BD4FF063
:1029B000E02460610F21601701F06EFF0020A0612C
:1029C00007202061002010BD4FF0E020016921F0B8
:1029D0000201016170477047704710B5040003D0D1
:1029E00094F83D0010B107E0012010BD002084F8EC
:1029F0003C00204600F00CF8022084F83D00211D28
:102A0000206801F0B5FC012084F83D00002010BDD5
:102A100008B500680B49884212D10B48016841F49F
:102A2000003101600068002200F40030009011467F
:102A30001920FFF735F8BDE808401920FFF723B843
:102A400008BD000000440140443802400168CA68E3
:102A500042F00102CA600068816801F0070106299E
:102A600003D0016841F00101016000207047704708
:102A700070B50446006801694FF00005C943890735
:102A800015D4C168C943890711D4E91E0161012029
:102A90002077206880698007204602D0FFF7E7FF93
:102AA00004E000F098F8204600F096F825772068BA
:102AB0000169C943490717D4C168C943490713D4F9
:102AC0006FF004010161022020772068806910F412
:102AD000407F204602D0FFF7CAFF04E000F07BF8F9
:102AE000204600F079F8257720680169C943090775
:102AF00016D4C168C943090712D46FF008010161F7
:102B0000042020772068C0698007204602D0FFF7A4
:102B1000AEFF04E000F05FF8204600F05DF8257796
:102B200020680169C943C90617D4C168C943C906E9
:102B300013D46FF010010161082020772068C0696C
:102B400010F4407F204602D0FFF791FF04E000F030
:102B500042F8204600F040F8257720680169C94313
:102B6000C90708D1C168C943C90704D1891E0161D9
:102B7000204600F033F820680169C943090609D4EA
:102B8000C168C943090605D46FF080010161204680
:102B9000FFF721FF20680169C943490609D4C168CC
:102BA000C943490605D46FF040010161204600F099
:102BB00071F820680169C94389060BD4C168C9430B
:102BC000890607D46FF0200101612046BDE87040FE
:102BD000FFF702BF70BD7047704700002DE9F0415C
:102BE0002749884249D1274C00256088401C80B283
:102BF0006080A188491CA180E188491CE18021896D
:102C0000491C2181042814D1207890B11E4F4FF423
:102C1000805631463846FEF72CFC6089411C6181A4
:102C2000C82806D9002231463846FEF729FC25700F
:102C30006581A08842F210770126B84203D113487B
:102C4000067013480670E088322801D103F0F2FACA
:102C500020894FF47A71884200D166706288042A14
:102C600000D36580A288BA4200D3A580E288322AC8
:102C700000D3E580884200D32581BDE8F0810000C3
:102C8000F082002000000020000402403E000020EE
:102C9000440000207047704770B502680446106811
:102CA000D168536910F00F0F52D003F0010501F401
:102CB00090762E435FD0C20705D0CA0503D5E26BDC
:102CC00042F00102E263420705D5DA0703D0E26B66
:102CD00042F00202E263820705D5DA0703D0E26B15
:102CE00042F00402E263020707D501F020022A4302
:102CF00003D0E26B42F00802E263E26B002A33D0B9
:102D0000800604D5880602D5204601F04FFC2068D5
:102D10004069E16BC0F38010090700D428B3204656
:102D200001F036FC2068416949061AD5416921F055
:102D300040014161606BA0B11B490165606BFEF70A
:102D40005DF9002810D0606B016DBDE87040084748
:102D5000830610D58B060ED52046BDE8704001F0E5
:102D600025BC2046FFF797FF70BD2046FFF793FF75
:102D70000020E06370BD030606D50B0604D520468F
:102D8000BDE8704001F0F2BC4006F3D54806F1D52D
:102D9000D168204621F04001D160202184F839100B
:102DA00000F035F970BD00008145000870B50400E1
:102DB00004D094F83900002510B106E0012070BD60
:102DC00084F83850204600F023F8242084F8390095
:102DD0002068C16821F40051C160204601F032FC36
:102DE0002068016921F4904101612068416921F066
:102DF0002A0141612068C16841F40051C160E56366
:102E0000202084F8390084F83A00002070BD0000CA
:102E1000F0B587B0044614216846FDF758FA2A4FEA
:102E20002368002229490224032507262848BB429B
:102E300021D1264B14331F6847F010071F601B6811
:102E400003F0100305930B6843F001030B6009685E
:102E500002AB01F0010105916902CDE9001483E89C
:102E600064006946FEF736FA002211462520FEF777
:102E700017FE252023E0174FBB4222D1134B1033FE
:102E80001F6847F400371F601B6803F40033059385
:102E90000B6843F001030B60096802AB01F001010C
:102EA00005910C21CDE9001483E864006946FEF722
:102EB00011FA002211462620FEF7F2FD2620FEF729
:102EC000E2FD07B0F0BD00000010014030380240C4
:102ED000000002400044004090F83A30202B22D1FC
:102EE000F9B1F2B190F83830012B1CD081628285A3
:102EF000C2850021C163222280F83A2080F8381070
:102F00000168CA6842F48072CA6001684A6942F086
:102F100001024A610068C16841F02001C1600020DF
:102F2000704701207047022070470000074910B524
:102F300088420AD1064800780CF016FFBDE8104020
:102F4000012203490148FFF7C7BF10BD708300206D
:102F5000450000202DE9F843044690F839001F464B
:102F600016460D46202850D1B5B1AEB194F83800C0
:102F700001284AD0012084F838004FF00008C4F836
:102F80003C80212084F83900FEF780FAA68481462F
:102F9000E68484F8388026E00120BDE8F883E08CE0
:102FA000401EE084A0684B46B0F5805F4FF0000201
:102FB0004FF080012046009703D001F008FCE8B9EB
:102FC0000DE001F004FCC8B928882168C0F30800AE
:102FD0004860206908B16D1C05E0AD1C03E0216864
:102FE00015F8010B4860E08C0028D8D14B46002230
:102FF00040212046009701F0EAFB08B10320CCE70E
:10300000202084F839000020C7E70220C5E7704778
:10301000FEE701684A69D24352050FD46FF480621B
:103020004A61002140F8301F2022427381730269F7
:1030300042F00402026101730120704700207047D2
:103040002DE9F84F0446006889460B9D01689846B3
:10305000174641F4806101602068016841F4807185
:10306000016000954FF0011B0022594620460A9B43
:1030700000F0DEF84FF4007A40B120680068C00527
:1030800001D5C4F840A00320BDE8F88F216809F0FD
:10309000FE0008612B46284920460A9A00F0FCF8F9
:1030A000F0BB20684169806900902A4620460A9951
:1030B00000F070F940B1206C04283AD12068016812
:1030C00041F40071016034E0FEB2B8F1010F09D0A3
:1030D0002168380A08612A4620460A9900F05AF900
:1030E0000028E8D1206806612A4620460A9900F0A7
:1030F00051F90028DFD12068016841F48071016036
:1031000000950022594620460A9B00F091F80028BD
:10311000B3D1216809F0FF0040F00100086100E030
:1031200007E02B46044920460A9A00F0B5F800282B
:10313000AAD00120A8E70000020001002DE9F84311
:10314000044600680D46DDE9089701689846164672
:1031500041F4807101604B4600224FF0011120467E
:10316000009700F065F848B120680068C00502D5F6
:103170004FF4007020640320BDE8F883216805F057
:10318000FE0008613B464A461549204600F084F897
:1031900088B920684169806900903A4649462046CE
:1031A00000F0F8F848B1206C042804D120680168C8
:1031B00041F4007101600120DEE7F5B2B8F1010FC2
:1031C00009D02168300A08613A464946204600F095
:1031D000E1F80028E7D1206805610020CCE7000075
:1031E0000200010070B516460D4604460DE020466B
:1031F000FFF70FFF08B1012070BD681C05D0FEF776
:1032000045F9801BA84207D835B120684069C04302
:103210004007ECD4002070BD002044F8300F20217E
:103220006173A073216941F0200121612073E2E7FD
:103230002DE9F0471E4690460D460446C1F3074768
:10324000DDF8209008E0701C06D0FEF71FF9A0EB17
:103250000900B0420FD876B12068012F18D08069DC
:1032600025EA00000004000C14D000214145EAD0FA
:103270000020BDE8F087002044F8300F2021617362
:10328000A073216941F02001216120730120F0E742
:103290004069E5E70121E9E72DE9F0479A469146C3
:1032A0000E46044600254FF02008C1F3074725E0ED
:1032B00020684069C043400514D42068016841F487
:1032C0000071016021686FF480604861256384F8B3
:1032D0003D8084F83E50206C40F00400206484F867
:1032E0003C501FE0B9F1FF3F08D0FEF7CFF8A0EB4C
:1032F0000A0149450CD8B9F1000F09D02068012F07
:1033000013D0806926EA00000004000C0BD0CFE740
:1033100044F8305F84F80D80A573206940F02000E8
:10332000206125730120BDE8F0874069EAE72DE9B7
:10333000F041002590460E460446202717E04069DC
:10334000C043C0060CD454F8301B6FF01000486125
:1033500044F810596777A577206A2062257717E02F
:10336000FEF794F8A0EB0800B04208D83EB1206800
:103370004169C9434906E2D40020BDE8F08144F820
:10338000305F6773A573206940F0200020612573CA
:103390000120F2E770B516460D4604460DE02046C2
:1033A000FFF737FE08B1012070BD681C05D0FEF79D
:1033B0006DF8801BA84207D835B120684069C0432A
:1033C0000006ECD4002070BD002044F8300F20210E
:1033D0006173A073216941F0200121612073E2E74C
:1033E00038B5094C0021606807F08EFE0749A060DF
:1033F00008F03FFB00200346024601460090A0680B
:1034000009F03FFE38BD000064010020FC1D0208E9
:10341000012204210148FEF733B8000000040240F5
:1034200038B5124C0021606808F0AEFC0121206123
:1034300009F03AFA0EA1206909F063FA0020034668
:10344000014600900322206909F01BFE012120693A
:103450000AF032FB002302224FF4FA6108480BF015
:1034600001F96062BDE8384000F0CEBF6401002081
:103470002346464646464620EF8984230000000046
:103480000944000838B51E4C0021606808F07CFC37
:1034900060610AF0DFF901463C221A48FCF7FEFEA3
:1034A000184919484862194840680090A1F15C0029
:1034B000BDF80010A0F87C10124960690AF096FB74
:1034C0000121606909F0F0F911A1606909F019FAA8
:1034D0000A200090032301220021606909F0D1FD38
:1034E000012160690AF0E8FA002303224FF44871D1
:1034F0000C480BF0B7F82062BDE8384000F0D4BFAC
:103500006401002094FA0020EC010020303301080F
:10351000303123464630303030202F233031204D9B
:103520004F4E0000A94400082DE9F04F87B000225B
:10353000FD49FE48FEF7A2FEFB484FF00A0BFA4C8D
:1035400041785846B1FBF0F20BFB1212F6493834C1
:10355000143100264978DFF8D883B1FBFBF30BFB6D
:1035600013106FF0090A4FF0C809A4F11005824248
:103570006BD0E0680AF0B9F90746E8680AF0B5F9D7
:10358000874203DDE8680590E06802E0E0680590A6
:10359000E8680490E4485F4614304078B0FBF7F1E7
:1035A0000BFB1102E3A1059809F0E4F9DE4840782D
:1035B000B0FBF7F107FB1102DEA1049809F0DAF97C
:1035C000CDF800A0DDE9040100230A2209F059FD2D
:1035D00005980AF08AF9074604980AF086F9381A1D
:1035E000002805DD05980AF080F90746049804E0F4
:1035F00004980AF07AF9074605980AF076F9381A1D
:1036000007B205980AF071F93844009005980AF05D
:103610006CF9CDE902680346C74AC849CDF8049061
:10362000059809F011FD04980AF05FF90744049821
:103630000AF05BF9C149CDE90268CDE9007903469A
:10364000BD4A2431049809F0FFFCB7484178B1FB2A
:10365000FBF200F114014978B1FBFBF0824268D023
:10366000A0680AF042F90746A8680AF03EF98742C6
:1036700003DDA8680590A06802E0A0680590A8682E
:103680000490A9485F461430AAA14078B0FBF7F235
:10369000059809F06FF9A448A6A14078B0FBF7F2AD
:1036A000049809F067F9CDF800A0DDE904010023D2
:1036B0000A2209F0E6FC05980AF017F90746049873
:1036C0000AF013F9381A002805DD05980AF00DF9FB
:1036D0000746049804E004980AF007F9074605989D
:1036E0000AF003F9381A07B205980AF0FEF83844D0
:1036F000009005980AF0F9F89049CDE90268034670
:103700008D4A4831CDF80490059809F09DFC049845
:103710000AF0EBF8074404980AF0E7F88749CDE986
:103720000268CDE900790346834A6C31049809F0B8
:103730008BFC7D4801785846B1FBF0F20BFB12126E
:10374000794914310978B1FBFBF30BFB131082426A
:103750006CD060680AF0C9F8074668680AF0C5F8D6
:10376000874203DD68680590606802E06068059044
:10377000686804906C485F4614300078B0FBF7F13D
:103780000BFB11026BA1059809F0F4F8664800786C
:10379000B0FBF7F107FB110266A1049809F0EAF803
:1037A000CDF800A0DDE9040100230A2209F069FC3C
:1037B00005980AF09AF8074604980AF096F8381A1D
:1037C000002805DD05980AF090F80746049804E003
:1037D00004980AF08AF8074605980AF086F8381A1D
:1037E00007B205980AF081F83844009005980AF06D
:1037F0007CF85249CDE9026803464F4A9031CDF832
:103800000490059809F020FC04980AF06EF807442B
:1038100004980AF06AF84949CDE90268CDE90079CF
:103820000346454AB431049809F00EFC3E48DFF8DF
:10383000F8B001780A20B1FBF0F20BF1140B9BF801
:103840000010B1FBF0F0824264D020680AF04DF81D
:10385000074628680AF049F8874202DD2F68256884
:1038600001E027682D689BF800000A24B0FBF4F201
:1038700030A1384609F07EF82B482EA10078B0FB25
:10388000F4F2284609F076F800230A223946284641
:10389000CDF800A009F0F5FB38460AF026F80446FA
:1038A00028460AF022F8201A002805DD38460AF0DA
:1038B0001CF80446284604E028460AF016F8044698
:1038C00038460AF012F8201A04B238460AF00DF809
:1038D00000EB040A38460AF008F81849CDE90268F6
:1038E000CDE900A90346144AD831384609F0ACFBAB
:1038F000284609F0FAFF0444284609F0F6FF0A4971
:10390000CDE90049CDE9026803460B4AD83928467B
:1039100009F09AFB07B00449BDE8F04F142201F109
:103920001400FCF7BBBC000048FB002018820020FC
:10393000C16E00082564000019DC000874F900203D
:103940002DE9FE4F5C4C0021606803F085FC5B496B
:10395000A0610AF04BF950228221A0690AF006F911
:103960004FF00008CDF80080434642464146A0692A
:1039700009F087FB3C2252495248FCF78FFC524E1B
:10398000DFF840A10025B068AAF1180A0090BDF840
:103990000010AAF81A10F1680091BDF80010AAF8FA
:1039A0001C106FF0090B04F138090021A06909F01F
:1039B0008DF8074643490AF019F90A2208213846CA
:1039C0000AF0D4F8002D74D00A20002300901A4683
:1039D0001946384609F055FB49F825706D1C022D33
:1039E000E3D338483C2239493C30FCF757FC354991
:1039F00037483C31334F486230690090BDF80010C1
:103A0000AAF87410D6E9050100250DF10409A037C4
:103A1000CDE901010021A06908F0B6F9294906465F
:103A20003C310AF0E3F82BA1304608F06AFFCDF8EC
:103A30000080002239F915301146304609F021FB8B
:103A400047F825606D1C042DE4D3DFF8788000254D
:103A50004FF00A0908F1B0080021A06908F094F9B4
:103A6000184906463C310AF0C1F81AA1304608F060
:103A700048FFCDF8009057F8251000230D2230465E
:103A800009F0FFFA48F825606D1C042DE4D30D48B9
:103A900014218C30FCF71BFC002303224FF4FA7135
:103AA0000D480AF0DFFDE06100F034FDBDE8FE8F57
:103AB000FFE7584689E7000064010020EC830020FE
:103AC00054850020D0FA002030330108A084002063
:103AD000C0010020300000001545000810B50AF0B4
:103AE00037FB002109F07EFC094C5022A0216060C8
:103AF0000AF03CF8606809F094FFFFF771FCFFF7EB
:103B00008FFC00F007F8BDE81040FFF7BBBC0000D9
:103B10006401002038B51B4C0021606808F034F9BE
:103B2000E06009F097FE01463C221748FCF7B6FB1F
:103B3000154816494162164909680091BDF8001000
:103B400001841149E0680AF051F812A1E06808F018
:103B5000D8FE00200346014600900522E06809F0E7
:103B600090FA0121E06809F0A7FF002302224FF438
:103B7000FA710B480AF076FDA062BDE8384000F00B
:103B8000D7BC00006401002038F90020EC010020BF
:103B9000303301082D2D2043202D2D206B50610046
:103BA000314500087FB50024154800940194029423
:103BB0001249039401604FF48031C0E9011404619B
:103BC000047680F820400F49C0E90A140125C56138
:103BD000C46080F830404561FDF705F908B1FDF794
:103BE0004AF80095CDE9015469460548FDF744F8C7
:103BF000002801D0FDF73FF87FBD00000020014004
:103C0000688100200100000F094808B5016841F4EF
:103C1000800101600068002200F4800000901146DD
:103C20003A20FDF73DFFBDE808403A20FDF72BBFE5
:103C3000303802402DE9F04387B014216846FCF784
:103C400046FB414C0025206840F0040020602068BD
:103C500000F004000590206840F08000206020689B
:103C600000F080000590206840F00100206020688E
:103C700000F001000590206840F0020020602068FC
:103C8000012200F00200314F5603059031463846BC
:103C9000FDF7F6FBDFF8B880002250214046FDF723
:103CA000EFFBDFF8B090002243F205014846FDF734
:103CB000E7FB00960126CDE9016569463846039584
:103CC000FDF708FB24486946CDE9006040460296AE
:103CD000FDF700FB50200090CDE9016569464046A4
:103CE0000395FDF7F7FA42F205000090CDE9016572
:103CF000694648460395FDF7EDFA0227A014CDE981
:103D00000275009069464846FDF7E4FACDE9007572
:103D1000694648460295FDF7DDFA4FF4866000904B
:103D20000E48CDE9010669464846FDF7D3FA002260
:103D300001212820FDF7B4FE206820F00400206057
:103D400007B0BDE8F08300003038024000080240B0
:103D50000000024000040240000021100000111089
:103D60000D4810B50B4901600C49416000214FF42A
:103D700080428160C0E9031241618161C1610162D9
:103D8000FDF78AFB002803D0BDE81040FCF773BFA5
:103D900010BD000000540040B0810020A08601004A
:103DA00000B58BB028216846FCF791FA0A4809490A
:103DB0007F2201600021C0E90112FF22C0E9032136
:103DC00041618161FEF786FA002801D0FCF753FFBC
:103DD0000BB000BD0028004018820020104810B52C
:103DE0000E4901604FF4827141604FF400418160DF
:103DF0000021C1604FF400720161C0E90512C16188
:103E00000162416281620A21C162FEF789FC0028D9
:103E100003D0BDE81040FCF72EBF10BD00300140BC
:103E2000388200200B4810B509490160002142F298
:103E300010724160C0E9021201618161FEF7CDFD9F
:103E4000002803D0BDE81040FCF715BF10BD0000EE
:103E500000440140F08200200C4810B50A4901607E
:103E60004FF4E1314160002181600C22C160C0E962
:103E700004128161C161FEF799FF002803D0BDE8FB
:103E80001040FCF7F8BE10BD001001403083002048
:103E90000C4810B50A4901604FF4165141600021E9
:103EA00081600C22C160C0E904128161C161FEF72A
:103EB0007DFF002803D0BDE81040FCF7DCBE10BD3C
:103EC0000044004070830020FEE770477047000008
:103ED0000749D1E901329A4209D00648824202D309
:103EE000A0F2072088608A6812F8010B8A60704788
:103EF00018000020070400200148FEF76FB90000F9
:103F000018820020010901EB810100F00F0000EB95
:103F10004100C0B27047002102E00A38C0B2491C1B
:103F20000A28FAD2090740EA1160704770B50446C2
:103F30000068C168490614D44FF0FF31C160FDF735
:103F4000A5FA05464FF47A7607E000BFFDF79EFA22
:103F5000401BB04201D9032070BD2068C0684006F4
:103F6000F4D5002070BD000038B504461248134B4C
:103F70000068B0FBF3F04FF47A7358430090606828
:103F8000B0F5827F0DD10B460092002280212046A1
:103F900000F016F870B1606D40F0200060650320FD
:103FA00038BD009830B1401E009020688068C04342
:103FB0000006F6D5002038BD7400002000366E01E2
:103FC0002DE9F0411D4617460E460446DDF81880DF
:103FD00008E0681C06D0FDF759FAA0EB0800A842DB
:103FE0000BD255B12068806836EA000030D000203E
:103FF000B842EED10020BDE8F0812068416821F090
:10400000E00141606068B0F5827F0BD1A068B0F537
:10401000004F02D0B0F5806F04D12068016821F014
:1040200040010160A06AB0F5005F09D12068016815
:1040300021F4005101602068016841F400510160E1
:10404000012084F85100002084F850000320D2E7BA
:104050000120CDE7F8B516460C460546A02816D235
:10406000502C14D200F0BAF8601CC3B2681CC2B263
:10407000E1B2E8B200F0BAF8300A8DF800008DF82D
:1040800001600221684600F0F1F800F0D5F8F8BDB3
:104090002DE9F04110F8015B044617E0207800F0AC
:1040A000D3F86078A41C00F0800730F0800604D0BC
:1040B0003146204600F0DAF834443FB114F8010BE1
:1040C000FF2801D14FF4FA70FDF7E4F86D1EEDB250
:1040D000E4D2BDE8F08100002DE9F8431F46DDF889
:1040E000208014460D460646A0283BD2502D39D2DA
:1040F0003019401EA02802DBC6F1A00084B2E819E6
:10410000401E502802DBC5F1500087B200F066F86F
:10411000E819401EC3B23019401EC2B2E9B2F0B273
:1041200000F064F84FEA18208DF800008DF8018047
:10413000012210210C48FDF7A3F94FF0FF360DE0E6
:10414000254607E03346022269460848FEF77AFB17
:104150006D1EADB2002DF5D17F1EBFB2002FEFD185
:1041600000F06AF8BDE8F8830000024038820020C1
:1041700008B5002100905023A0220846FFF7ACFFAD
:1041800008BD000010B5012251031148FDF778F970
:1041900000F024F80F4C002240212046FDF770F972
:1041A0000520FDF777F8012240212046FDF768F948
:1041B0000948FFF76DFF08483B30FFF769FF0648E5
:1041C0004A30FFF765FFBDE8104000F035B8000049
:1041D00000040240000002400EFE000800220121FF
:1041E0000148FDF74DB9000000040240F8B507464C
:1041F0001C4615460E462A2000F026F800200090A6
:104200007F1C8DF801706D1C8DF8035004216846E9
:1042100000F02CF82B2000F017F81A368DF801600A
:104220001A348DF803400421684600F01FF82C2052
:1042300000F00AF8F8BD0000012211460148FDF720
:104240001FB900000004024001B5002210210548FA
:10425000FDF716F94FF0FF33012269460248FEF7D9
:10426000F1FA08BD000002403882002070B50D460A
:104270000446012210210648FDF702F9AAB22146A0
:10428000BDE870404FF0FF330248FEF7DBBA000094
:104290000000024038820020704710B501200AF06B
:1042A0001DFBBDE81040FDF783BB000030B599B0A1
:1042B00030216846FCF70BF814210CA8FCF707F82E
:1042C000182111A8FCF703F81D480025016841F0EA
:1042D00080510160006800F0805017901948016813
:1042E00041F4404101600068022400F4404017900E
:1042F000052000904FF4803001900120029080054D
:10430000CDE906400C2008906020CDE90904042086
:104310000B906846FDF7A8FD0CA90F2081E831003D
:10432000E002CDE90F0503210CA8FDF7B1FCE00187
:104330001590119411A8FDF701FC19B030BD0000D3
:1043400040380240007000400548016841F47001A7
:10435000016003494FF00060803908607047000039
:1043600088ED00E00148FEF783BB0000F0820020EA
:10437000F0B502681D4B1E4C9F031E4D1E4E984209
:1043800007D0B84205D0A04203D0A84201D0B04225
:1043900004D122F0700C4A6842EA0C02984210D014
:1043A000B8420ED0A0420CD0A8420AD0B04208D0E9
:1043B000124CA04205D0124CA04202D0114CA04297
:1043C00003D122F44074CA6822434C6922F080026F
:1043D000224302608A68C2620A688262984201D1FE
:1043E0000969016301214161F0BD00000000014045
:1043F0000004004000080040000C00400040014064
:10440000004401400048014000B52DED028B85B00D
:104410000BF09EF8F1EE000A142220EE208A1549D6
:104420006846FBF73BFF18EE100AFCF764F941EC15
:10443000100B9FED114B9FED123B9FED132B9FED4A
:10444000141B02F07DFA51EC100BFCF71CF900284C
:1044500001DA002002E0042800D904200EA15DF852
:1044600020201048006908F085FA05B0BDEC028BE9
:1044700000BD00004C3301080000000000001440A3
:104480000000000000000000000000C0CCCC104084
:1044900000000060666606402346464646464620C3
:1044A000257323006401002000B589B00022104963
:1044B0001048FDF7C1FE1C220F4901A8FBF7EEFED4
:1044C0000B480178491E49B2002901DA002102E0B7
:1044D000062900DD062101AA52F8211000918378F7
:1044E0004278034805A1406908F044FA09B000BDCC
:1044F00064010020188200206033010825303264F6
:1045000023464630303030202F232530326420259A
:104510007300000010B5FFF707F8044C206808F09E
:10452000B5FB6068BDE8104008F0B0BB9C010020FE
:104530000D4B10B5A3F10802111D0C4801F0BAFC97
:1045400009480BA1343890ED0D0ABDEEC00A10EEFB
:10455000103A90ED0C0AC068BDE81040BDEEC00AEC
:1045600010EE102A08F006BA98010020987F00206B
:104570002520326443C2B0202564252500000000B8
:1045800010B5806B0021C185C184FEF784FB10BD8E
:104590000168CA6822F49072CA6001684A6922F010
:1045A00001024A61202180F83A10704710B590F856
:1045B0003A10222901D0022010BD8168B1F5805F38
:1045C00011D00169002901681FD0496801F07F03FB
:1045D000816A4A1C82620B70C18D491E0904090C54
:1045E000C18518D02BE00269816A002A02685268EE
:1045F00005D0D2B20A80816A491C8162ECE7C2F31D
:1046000008020A80816A891CF7E74A68816A4B1CA4
:1046100083620A70E0E70168CA6822F02002CA607B
:104620000168CA6822F48072CA6001684A6922F08F
:1046300001024A61202180F83A10FEF777FC002041
:1046400010BD00002DE9F041044600680169E268F0
:1046500021F44051114301612169A068E2690843D6
:104660006169114308432168CA6849F20C639A439F
:104670000243CA6020684169A26921F44071114374
:104680004161E069192764253226B0F5004F354AAB
:10469000354920684FF0000806D0884201D090428A
:1046A00036D1FDF79FFB35E0884201D0904202D120
:1046B000FDF798FB01E0FDF785FB61684A18A0FB58
:1046C000070148EB0803FBF783FD0146B0FBF5F05B
:1046D0000201B1FBF5F06FF01803584301EB8000C5
:1046E00006EBC000B0FBF5F000F0F80002EB400272
:1046F000B1FBF5F0584301EB800006EBC000B0FBC6
:10470000F5F000F00700216810448860BDE8F081F2
:10471000FDF758FB61688B0F8A00A0FB0701FBF7D0
:1047200057FD0146B0FBF5F06FF01802504301EB66
:10473000800006EB0010B0FBF5F000F0F002B1FBDA
:10474000F5F002EB0012B1FBF5F06FF018035843DF
:1047500001EB800006EB0010B0FBF5F000F00F005D
:10476000D1E70000001401400010014090F839101A
:10477000212901D0022070478168B1F5805F016A6C
:104780000BD04A1C0262026809785160C18C491E34
:104790000904090CC1840ED017E009880268C1F32E
:1047A0000801516001690029016A02D0491C0162B7
:1047B000ECE7891CFBE70168CA6822F08002CA6046
:1047C0000068C16841F04001C160002070472DE9D8
:1047D000F041984617460E460446069D1DE0681CAB
:1047E0001BD02DB1FCF752FEA0EB0800A84214D953
:1047F0002068C16821F4D071C1602068416921F04E
:1048000001014161202084F8390084F83A00002039
:1048100084F838000320BDE8F0812068006836EA9B
:10482000000004D00020B842D9D00020F3E70120D6
:10483000F9E700000148FEF72FBA0000308300209E
:104840000148FEF729BA000070830020FEE700004F
:104850000FB4054B10B503A9044A029800F032FDCD
:1048600010BC5DF814FB0000816A0008FC01002008
:104870000FB4084B10B504A902AA039800F022FD5A
:10488000044602A9002000F0BEFE204610BC5DF8E0
:1048900014FB0000075600080907090E002804DB76
:1048A00000F1E02080F80014704700F00F0000F1E4
:1048B000E02080F8141D704702E008C8121F08C1EC
:1048C000002AFAD170477047002001E001C1121F91
:1048D000002AFBD1704710B5C468A06802688A42FC
:1048E0000FD88AB2018A806801F0ACF9411C08D067
:1048F000616801EBC00021680068C0F31300084440
:1049000010BD002010BD70B5C5680C46A8680168D0
:1049100091421AD8018A92B2806801F093F9411C41
:1049200013D0696801EBC0000168090D218041794D
:10493000E1700179A17081792171C0796071688A13
:10494000C0F38220A071012070BD002070BD70B541
:10495000044600256FF02F0608E02068411C216006
:10496000007805EB850106EB4101451820680078C9
:1049700000F074FB0028F0D1284670BD2DE9FF5FE0
:104980002DED020B2DED0A8B86B0B0EE408AF0EED5
:10499000608A53EC182B51EC180BDDE92058229E4D
:1049A000FBF7BCFE11D19FEDCD0B51EC180B53EC76
:1049B000102BFBF7CBFE08D39FEDCA0B51EC180B65
:1049C00053EC102BFBF7AAFE11D2CDE9005812AC24
:1049D000029694E80F00B0EE480AF0EE680A00F084
:1049E000C7F906B0BDEC0A8B06B0BDE8F09F9FED9D
:1049F000BF0B51EC180B53EC102BFBF78FFE08D2BA
:104A00004FF0010B51EC180B81F0004141EC180BF9
:104A100001E04FF0000B70059FEDB6BB00D40625FA
:104A200018EE900AB54A8DED008BC0F30A54C0F31E
:104A30001300104301909DED000B4FF0000A9FED15
:104A4000B01B51EC100B53EC112BA4F2FF34FBF70D
:104A500015FD9FEDAD1B53EC112BFBF715FD41EC44
:104A6000190B2046FBF7F1FD9FEDA91B53EC112B11
:104A7000FBF70AFD9FEDA81B53EC112BFBF75DFC28
:104A800053EC192BFBF759FCFBF7FDFD0446FBF734
:104A9000DCFD07469FEDA21B009153EC112BFBF7A9
:104AA000F3FC9FEDA11B53EC112BFBF746FCFBF72E
:104AB000EAFD8146FBF7C9FD9FED9D1B53EC112BD1
:104AC000FBF7E2FC41EC190B009941EC107B9FEDE8
:104AD0009A1B51EC100B53EC112BFBF7D5FC53EC4C
:104AE000192BFBF7CBFC41EC190B53EC192BFBF703
:104AF000CBFC41EC1A0B4FEA095040F2FF3100EBBE
:104B000001519FED8F0BCDE900A153EC102B51EC1F
:104B10001A0BFBF72BFD53EC1B2BFBF70EFC41ECA8
:104B2000100B51EC1A0B53EC102BFBF71FFD9FEDF4
:104B3000861B53EC112BFBF700FC41EC100B51ECE6
:104B40001A0B53EC102BFBF711FD53EC192B41EC16
:104B50001A0B9FED7FCB51EC1C0BFBF78FFC53EC3A
:104B60001A2BFBF7EAFB41EC1A0B53EC1C2B51EC14
:104B7000190BFBF789FC53EC1A2BFBF7F7FC9FEDA5
:104B8000761B53EC112BFBF7D8FB9DED001B53EC70
:104B9000112BFBF779FC41EC190B51EC180B8DED47
:104BA000009B53EC192BFBF7B9FD08D253EC1B2BE0
:104BB00051EC190B641EFBF7D9FCCDE9000104F19F
:104BC0006300C72801D2042700E00527300520D55F
:104BD0009FED630B51EC180B53EC102BFBF7B6FD5C
:104BE00013D89FED610B51EC180B53EC102BFBF716
:104BF00095FD0AD2A54202DD2D1B6D1E00E00025A9
:104C0000002746F480663C4603E015B1700500D5E8
:104C10006D1EB84502D9A8EB070000E000208146D0
:104C2000B00702D50FB14FF000094CB19DED000B5C
:104C300051EC180B53EC102BFBF798FC41EC180BC4
:104C4000DDF850A0BBF1000F05D051EC180B81F03E
:104C5000004141EC180B26F400600095CDE901906D
:104C60000DF1480BB0EE480A9BE80F00F0EE680A21
:104C700000F07EF8054617B305F101092A46B00693
:104C800001D5452000E06520DDE91251159BA847BC
:104C900000200A220521CDE902207F1ECDE9047102
:104CA000E00F002C00DA6442CDE90040DDE912019A
:104CB0004A46159B00F04BFA0546B00707D40AE0B8
:104CC0002A46DDE912416D1C2020159BA047A5EB6B
:104CD0000A014145F4D3284683E60000FFFFFFFFA9
:104CE000FFFFEF7FFFFFFFFFFFFFEFFF0000000070
:104CF0000000000000000000000024400000F03F21
:104D0000000000000000F83F61436F63A787D23FB7
:104D1000FB799F501344D33FB3C8608B288AC63FAA
:104D200071A379094F930A40000000000000E03FA2
:104D3000EF39FAFE422EE63F1655B5BBB16B024085
:104D40000000000000002C4000000000000018409F
:104D50000000000000000040000000000000F03FE4
:104D60002D431CEBE2361A3F0000000080842E41E8
:104D70002DE9FF5F2DED020B2DED068B8CB0B0EE13
:104D8000408AF0EE608ADDE923759FEDA19B002447
:104D900053EC182B51EC180BDDF88880FBF7BEFCA8
:104DA00002D003209CA10AE09FED9C0B51EC180B54
:104DB00053EC102BFBF7B2FC09D2042099A1CDE9EA
:104DC0000010CDE9027514AC94E80F001DE19FEDD1
:104DD000970B51EC180B53EC102BFBF7B7FC07D2D9
:104DE000680702D5042093A1E9E7032093A1E6E731
:104DF0009FED930B51EC180B53EC102BFBF7A6FC1B
:104E000008D39FED910B51EC180B53EC102BFBF7D3
:104E100085FC12D2CDF80080CDE9017514ACB0EE5E
:104E2000480A94E80F00F0EE680AFFF7A7FD0CB0FF
:104E3000BDEC068B06B0BDE8F09F4FF0000B53ECC5
:104E4000192B51EC180BFBF769FC07D24FF0010B43
:104E500051EC180B81F0004141EC180B680501D4AE
:104E60004FF006080DF1100A794E9FED7A9BB8F1CC
:104E7000090F07D930210AF80410641CA8F10108B1
:104E8000202CF1D351EC180BFBF7FDFB8146FBF70F
:104E9000DCFB53EC182BFBF7F4FA41EC100B06EBA0
:104EA000C800009090ED001B51EC100B53EC112B3F
:104EB000FBF7EAFA41EC1A0BFBF704FC0646FBF79A
:104EC000D5FB53EC1A2BFBF7DCFA41EC1A0B53EC35
:104ED000192BFBF73BFC13D2761C3046FBF7C6FBC5
:104EE00041EC100B009890ED001B51EC100B53ECB3
:104EF000112BFBF72BFC10D8002609F101090CE05F
:104F000053EC192B51EC1A0BFBF708FC05D306F0F8
:104F10000100401E304200D1761CB8F1000002D0E2
:104F20000A22514625E04846FBF78FFB53EC182B2D
:104F3000FBF7A7FA41EC180B53EC192BFBF706FC17
:104F400006D953EC192B51EC180BFBF7FFFB1FD2C2
:104F50005FEAC9701CD009F1010919E0B6FBF2F350
:104F600002FB1363B6FBF2F630330B55401E641C94
:104F70002EB1202CF2D31BE00A55641C00E0302235
:104F8000202C15D2401EF7D22E200AF80400641CF3
:104F90000A205246202C0BD299FBF0F300FB139110
:104FA0003031115599FBF0F1641C5FEA0109F1D130
:104FB000A80711D4E8070FD02FB105F00C0050EA74
:104FC0000B0000D07F1E30205146BC4204D2202C62
:104FD00013D20855641CF8E7202C0ED2BBF1000F49
:104FE00001D02D2106E0680701D52B2102E028071A
:104FF00003D520210AF80410641CCDF800A0039505
:10500000CDE9014714AE96E80F0000F025F90EE750
:1050100000000000000000006E616E00FFFFFFFF57
:10502000FFFFEFFF666E692D00000000FFFFFFFF2E
:10503000FFFFEF7F666E692B00000000666E69005F
:105040000000000065CDCD410000000065CDCDC160
:10505000E0320108000000000000E03F303809287D
:1050600001D801207047002070472DE9FF5F91466D
:105070008A468346DDE90E20DDE91341DDE911674B
:10508000DDF840C05FEA81784FF030051AD45CB19A
:105090005FEAC17808D001F00C0858EA0C0803D088
:1050A000641E01E01554401CB84204D22028F9D3F4
:1050B00001E01554401C5FEAC17803D0A04201D240
:1050C0002028F6D35FEAC16825D55FEA41580AD4A3
:1050D00048B1B84201D0A04205D1401E03D0102EE5
:1050E00003D1401E04E0102E02D0022E0AD00EE0A2
:1050F0008E0603D420281ED2782606E020281AD255
:10510000582602E0202816D262261654401C202879
:1051100011D21554401C20280DD2BCF1000F01D033
:105120002D2506E04D0701D52B2502E00D0702D500
:1051300020251554401CCDE90020CDE902414A4606
:105140005146584600F088F804B0BDE8F09F2DE9BC
:10515000F04F8FB099468B46DDE91818DDE91C63E6
:10516000DDE91A4792468646002209B923F010036A
:10517000580507AD00D5C9B1B1FBF4F004FB101020
:10518000C0B20A2801D2303009E05FEA836C02D550
:105190004FF0410C01E04FF0610C60440A38B1FB64
:1051A000F4F1A854521C09B1202AE5D3CDF80880A7
:1051B000CDE90563CDE90052CDE903474B465246A0
:1051C00059467046FFF751FF0FB0BDE8F08F2DE94B
:1051D000FF4F8FB01CACDDE9239594E8030820ACA9
:1051E00094E8C004002450EA010201D125F0100522
:1051F0006A050DF11C0802D550EA010217D03246AB
:105200003B46FAF7E5FFD2B20A2A01D2303206E075
:10521000AB0601D5412300E061231A440A3A08F89D
:105220000420641C50EA010201D0202CE7D3CDE910
:105230000084CDF808B0CDE90595CDE9036A0FAF3C
:1052400097E80F00FFF711FF13B0BDE8F08F9A4207
:1052500000D28854704770472DE9FF5F80460FA841
:10526000DDF838B090E8C004144691465FEA8A70D1
:1052700014D1354607E02246641C2020C446039B17
:105280000199E0476D1CBD42F5D307E02246641C3E
:10529000761E039B1BF806000199C047002EF5D12E
:1052A0005FEA8A7006D409E02246641C2020039B32
:1052B0000199C047A4EB0900B842F5D304B02046D9
:1052C000BDE8F09F2DE9FF4F8BB0884605460026CC
:1052D00006E025280BD0DDE90D1290476D1C761CE9
:1052E00028780028F5D10FB03046BDE8F08F0024B3
:1052F000A146A2460122AE4900E0044315F8013F51
:10530000203B02FA03F00842F7D128782A2810D06F
:105310006FF02F022878A0F13001092915D809EB88
:10532000890102EB410144F0020400EB01096D1C0C
:10533000F0E758F8041B5FEA010903D544F4005470
:10534000C9F1000944F002046D1C28782E2817D1F9
:1053500015F8010F44F004042A280ED06FF02F0234
:105360002878A0F1300109290AD80AEB8A0102EB5A
:10537000410100EB010A6D1CF2E758F804AB6D1C0B
:1053800028786C280FD006DC4C2817D068280DD060
:105390006A2814D104E0742810D07A280FD10DE0C7
:1053A00044F400140AE044F4801401E044F440148E
:1053B0006978814202D104F580146D1C6D1C287837
:1053C000692865D006DC00288DD0632827D06428A2
:1053D00006D15DE06E2808D073282AD0752877D0D2
:1053E000DDE90D129047761CE0E0C4F3025002287C
:1053F00009D003280DD0D8F8001004280DD00E6075
:1054000008F10408D2E0D8F80010F217C1E90062F0
:10541000F6E7D8F800100E80F2E70E70F0E718F803
:10542000041B8DF8001000208DF80100EB460120D0
:1054300003E058F804BB4FF0FF3061074FF000075E
:1054400001D40AE07F1C57450DDA8742FADB1BF8CE
:1054500007100029F6D106E07F1C8742FCDB1BF811
:1054600007100029F8D1DDE90D23A9EB07008146DB
:10547000214600F0B1F83044C61904E0DDE90D1210
:105480001BF8010B90477F1EF8D22146484688E062
:1054900058F8040BC4F302514FF00A0B032900D152
:1054A00000B2042900D140B2002802DA40422D2186
:1054B00002E0210505D52B218DF82410012104E0FF
:1054C00006E0E10710D02021F6E708AF089113E0CD
:1054D00058F8040BC4F302514FF00A0B032900D112
:1054E00080B2042900D1C0B20021EEE75946FBF793
:1054F00061F9303107F8011D0028F7D1ADEB070045
:1055000000F1200B600702D524F4803401E04FF055
:10551000010ADA4502DDAAEB0B0000E0002082461A
:1055200000EB0B0108980144A9EB01000A90E0038D
:1055300006D4DDE90D2321460A9800F04DF8064413
:105540004FF0000908E009A911F80900DDE90D1282
:10555000904709F10109761C08998945F3DBE003BE
:105560000CD5DDE90D2321460A9800F035F80644F4
:1055700004E0DDE90D1230209047761CBAF10001FD
:10558000AAF1010AF5DC05E0DDE90D1217F8010BBF
:105590009047761CBBF10001ABF1010BF4DC0A98DB
:1055A0002146DDE90D2300F005F806446D1C97E661
:1055B000092801002DE9F041044600251E46174642
:1055C000880404D405E039462020B0476D1C641ED1
:1055D000F9D52846BDE8F0812DE9F04104460025C3
:1055E0001E469046C80301D5302700E020278804D6
:1055F00004D505E041463846B0476D1C641EF9D518
:105600002846BDE8F0810A68531C0B601070704793
:105610002DE9FF4F89B005460A98002492460028DC
:1056200000D1FC4D72E1252804D02246641C53466B
:105630000A992BE2491C4FF0000808460C910178AA
:105640002B2919D004DC202919D0232904D119E0F1
:105650002D290ED0302909D00026C8B2FFF7FEFC54
:10566000B0B10CA8FFF773F906461FE048F001013E
:105670000AE048F0020107E048F0040104E048F0C5
:10568000080101E048F01001401C88460C90D6E764
:105690000C9908782A2809D1169840C81690002E2F
:1056A00002DA48F002087642491C0C910C984FF03F
:1056B000000B01782E2919D1401C0C9048F4806809
:1056C0000078FFF7CBFC20B10CA8FFF740F9834628
:1056D0000CE00C9A10782A2808D1169901C9169165
:1056E000002800DC0020521C83460C920C980178A4
:1056F0006C290AD004DC68290FD06A2919D129E065
:1057000074292AD07A2914D127E0401C0C90017802
:1057100048F480786C291DD00BE0401C0C90017877
:1057200048F08008682904D148F04001401C8846B0
:105730000C90007865280CD019DC582829D00FDC93
:10574000252872D0452804D046286FD047287FF4FA
:105750006CAFFAE048F40071E8E748F48071E5E7DF
:10576000622816D0632878D06428F0D111E0702820
:1057700074D008DC662859D0672870D0692808D012
:105780006F28E4D105E073286AD0752801D0782805
:10579000DDD1782809D0582807D06F282AD0622870
:1057A0002AD00A2128F0100802E01021582825D01C
:1057B000692803D0642801D028F00C085FEA485219
:1057C00001D528F0010869281BD0642819D05FEAA8
:1057D000885069D51698CDF818B0C01D20F0070282
:1057E0000020CDE904100290CDE90768F2E802013B
:1057F000169229E00821DFE70221DDE748F02008C2
:10580000DAE75FEA88502CD5169804AFC01D20F067
:105810000703F3E802021693002387E80A08CDE99C
:105820000768002A03DA012102E02AE177E000217B
:105830000023029119461B1A914101DA114603E037
:105840000021404261EB0201CDE9000153462246AE
:1058500028460A99FFF7BBFC94E095E007E174E065
:10586000B9E05FEAC85004D5169A01CA0FE0404279
:1058700015E05FEA486003D5169A12F8040B06E0BB
:105880005FEA0860F0D5169A32F8040B00B216925F
:10589000CDE9021BCDE90468C10F0028E7DD5346BE
:1058A0002246CDE9000129E05FEAC8500CD5CDE9D8
:1058B000021BCDE9046800211698534604C8CDE9BF
:1058C00000211690224619E05FEA486003D5169839
:1058D00010F8042B08E05FEA0860169803D530F84A
:1058E000042B92B200E004C816900020CDE90020FD
:1058F000CDE9021BCDE904685346224628460A99A1
:10590000FFF725FC3EE00C98401C0C900C990878A1
:1059100000287FF488AE54457ED22246BAE046285D
:1059200001D148F020081698CDF800B0CDE9016803
:10593000C01D20F007005346B0EC020B2246169023
:1059400028460A99FFF714FA1CE0672801D0472877
:1059500001D148F40068452801D0472801D148F01A
:1059600020081698CDF800B0CDE90168C01D20F0E0
:1059700007005346B0EC020B2246169028460A99BF
:10598000FEF7FCFF0446BEE701275FEA887006D5F4
:1059900009E02246641C534620200A99A84738464D
:1059A0007F1CB042F5D316992246641C11F8040BF3
:1059B000169153460A99A8475FEA887006D4A2E771
:1059C0002246641C534620200A99A84738467F1C6B
:1059D000B042F5D397E7169850F8049B16904A46C4
:1059E000BBF1000001D0014601E04FF0FF31484615
:1059F00000E0401C03780BB1491EFAD2871A5FEA17
:105A0000485003D558465F4500D307465FEA887083
:105A100009D514E0575200083AE02246641C534668
:105A200020200A99A84738467F1CB042F5D306E0EB
:105A3000224609F10109641C53460A99A84799F8BE
:105A4000000028B15FEA4851F2D5BBF1010BEFD25B
:105A50005FEA887006D456E72246641C534620202D
:105A60000A99A84738467F1CB042F5D34BE7082176
:105A700048F021001023CDE90410CDE9023B0021BC
:105A80001AE72246641C534625200A99A8473AE79C
:105A9000AAF10102534600200A99A8470DB02046FA
:105AA000BDE8F08F114810B590ED000AF2EE040A3F
:105AB000012020EE200ABCEEC00A10EE101A09F0F8
:105AC00025FB0B4890ED000A0220BCEEC00A10EE48
:105AD000101A09F01BFB6421042009F017FB0122B6
